{
  "_format": "hh-sol-artifact-1",
  "contractName": "WavePortal",
  "sourceName": "contracts/WavePortal.sol",
  "abi": [
    {
      "inputs": [],
      "stateMutability": "payable",
      "type": "constructor"
    },
    {
      "anonymous": false,
      "inputs": [
        {
          "indexed": true,
          "internalType": "address",
          "name": "from",
          "type": "address"
        },
        {
          "indexed": false,
          "internalType": "uint256",
          "name": "timestamp",
          "type": "uint256"
        },
        {
          "indexed": false,
          "internalType": "string",
          "name": "message",
          "type": "string"
        }
      ],
      "name": "NewWave",
      "type": "event"
    },
    {
      "inputs": [],
      "name": "getAllWaves",
      "outputs": [
        {
          "components": [
            {
              "internalType": "address",
              "name": "waver",
              "type": "address"
            },
            {
              "internalType": "string",
              "name": "message",
              "type": "string"
            },
            {
              "internalType": "uint256",
              "name": "timestamp",
              "type": "uint256"
            }
          ],
          "internalType": "struct WavePortal.Wave[]",
          "name": "",
          "type": "tuple[]"
        }
      ],
      "stateMutability": "view",
      "type": "function"
    },
    {
      "inputs": [],
      "name": "getTotalWaves",
      "outputs": [
        {
          "internalType": "uint256",
          "name": "",
          "type": "uint256"
        }
      ],
      "stateMutability": "view",
      "type": "function"
    },
    {
      "inputs": [],
      "name": "getWavesBySender",
      "outputs": [
        {
          "internalType": "uint256",
          "name": "",
          "type": "uint256"
        }
      ],
      "stateMutability": "view",
      "type": "function"
    },
    {
      "inputs": [
        {
          "internalType": "address",
          "name": "",
          "type": "address"
        }
      ],
      "name": "lastWavedAt",
      "outputs": [
        {
          "internalType": "uint256",
          "name": "",
          "type": "uint256"
        }
      ],
      "stateMutability": "view",
      "type": "function"
    },
    {
      "inputs": [
        {
          "internalType": "string",
          "name": "_message",
          "type": "string"
        }
      ],
      "name": "wave",
      "outputs": [],
      "stateMutability": "nonpayable",
      "type": "function"
    }
  ],
  "bytecode": "0x60806040526200004f6040518060400160405280600b81526020017f636f6e73747275637465640000000000000000000000000000000000000000008152506200007760201b620007cf1760201c565b606444426200005f9190620001c4565b6200006b919062000261565b60038190555062000308565b62000117816040516024016200008e919062000184565b6040516020818303038152906040527f41304fac000000000000000000000000000000000000000000000000000000007bffffffffffffffffffffffffffffffffffffffffffffffffffffffff19166020820180517bffffffffffffffffffffffffffffffffffffffffffffffffffffffff83818316178352505050506200011a60201b60201c565b50565b60008151905060006a636f6e736f6c652e6c6f679050602083016000808483855afa5050505050565b60006200015082620001a8565b6200015c8185620001b3565b93506200016e8185602086016200022b565b6200017981620002f7565b840191505092915050565b60006020820190508181036000830152620001a0818462000143565b905092915050565b600081519050919050565b600082825260208201905092915050565b6000620001d18262000221565b9150620001de8362000221565b9250827fffffffffffffffffffffffffffffffffffffffffffffffffffffffffffffffff0382111562000216576200021562000299565b5b828201905092915050565b6000819050919050565b60005b838110156200024b5780820151818401526020810190506200022e565b838111156200025b576000848401525b50505050565b60006200026e8262000221565b91506200027b8362000221565b9250826200028e576200028d620002c8565b5b828206905092915050565b7f4e487b7100000000000000000000000000000000000000000000000000000000600052601160045260246000fd5b7f4e487b7100000000000000000000000000000000000000000000000000000000600052601260045260246000fd5b6000601f19601f8301169050919050565b61149e80620003186000396000f3fe608060405234801561001057600080fd5b50600436106100575760003560e01c8063196bb79b1461005c578063449d46c01461007a5780639a2cdc0814610096578063a42a4663146100b4578063bd43a908146100e4575b600080fd5b610064610102565b6040516100719190611040565b60405180910390f35b610094600480360381019061008f9190610c50565b6101c8565b005b61009e61061b565b6040516100ab9190611040565b60405180910390f35b6100ce60048036038101906100c99190610c27565b610666565b6040516100db9190611040565b60405180910390f35b6100ec61067e565b6040516100f99190610eb9565b60405180910390f35b60006101836040518060400160405280601d81526020017f7468652073656e6465722025732077617665642025642074696d65732100000081525033600160003373ffffffffffffffffffffffffffffffffffffffff1673ffffffffffffffffffffffffffffffffffffffff16815260200190815260200160002054610868565b600160003373ffffffffffffffffffffffffffffffffffffffff1673ffffffffffffffffffffffffffffffffffffffff16815260200190815260200160002054905090565b42610384600260003373ffffffffffffffffffffffffffffffffffffffff1673ffffffffffffffffffffffffffffffffffffffff168152602001908152602001600020546102169190611152565b10610256576040517f08c379a000000000000000000000000000000000000000000000000000000000815260040161024d90611020565b60405180910390fd5b42600260003373ffffffffffffffffffffffffffffffffffffffff1673ffffffffffffffffffffffffffffffffffffffff1681526020019081526020016000208190555060016000808282546102ac9190611152565b9250508190555060018060003373ffffffffffffffffffffffffffffffffffffffff1673ffffffffffffffffffffffffffffffffffffffff16815260200190815260200160002060008282546103029190611152565b925050819055506103496040518060400160405280601681526020017f257320776176656420772f206d657373616765202573000000000000000000008152503383610907565b600460405180606001604052803373ffffffffffffffffffffffffffffffffffffffff16815260200183815260200142815250908060018154018082558091505060019003906000526020600020906003020160009091909190915060008201518160000160006101000a81548173ffffffffffffffffffffffffffffffffffffffff021916908373ffffffffffffffffffffffffffffffffffffffff1602179055506020820151816001019080519060200190610408929190610b07565b50604082015181600201555050606460035442446104269190611152565b6104309190611152565b61043a9190611289565b6003819055506104816040518060400160405280601681526020017f52616e646f6d20232067656e6572617465643a202564000000000000000000008152506003546109a6565b603260035410156105c8576104cb6040518060400160405280600781526020017f257320776f6e210000000000000000000000000000000000000000000000000081525033610a42565b6000655af3107a4000905047811115610519576040517f08c379a000000000000000000000000000000000000000000000000000000000815260040161051090610fe0565b60405180910390fd5b60003373ffffffffffffffffffffffffffffffffffffffff168260405161053f90610ea4565b60006040518083038185875af1925050503d806000811461057c576040519150601f19603f3d011682016040523d82523d6000602084013e610581565b606091505b50509050806105c5576040517f08c379a00000000000000000000000000000000000000000000000000000000081526004016105bc90611000565b60405180910390fd5b50505b3373ffffffffffffffffffffffffffffffffffffffff167f5f7e16dc676677766a70e9c5628aa6c54ddb8b6e5188e2ae1e1f17f1ffbea716428360405161061092919061105b565b60405180910390a250565b600061065e6040518060400160405280601781526020017f5765206861766520256420746f74616c207761766573210000000000000000008152506000546109a6565b600054905090565b60026020528060005260406000206000915090505481565b60606004805480602002602001604051908101604052809291908181526020016000905b828210156107c657838290600052602060002090600302016040518060600160405290816000820160009054906101000a900473ffffffffffffffffffffffffffffffffffffffff1673ffffffffffffffffffffffffffffffffffffffff1673ffffffffffffffffffffffffffffffffffffffff16815260200160018201805461072b90611226565b80601f016020809104026020016040519081016040528092919081815260200182805461075790611226565b80156107a45780601f10610779576101008083540402835291602001916107a4565b820191906000526020600020905b81548152906001019060200180831161078757829003601f168201915b50505050508152602001600282015481525050815260200190600101906106a2565b50505050905090565b610865816040516024016107e39190610edb565b6040516020818303038152906040527f41304fac000000000000000000000000000000000000000000000000000000007bffffffffffffffffffffffffffffffffffffffffffffffffffffffff19166020820180517bffffffffffffffffffffffffffffffffffffffffffffffffffffffff8381831617835250505050610ade565b50565b61090283838360405160240161088093929190610f72565b6040516020818303038152906040527f07c81217000000000000000000000000000000000000000000000000000000007bffffffffffffffffffffffffffffffffffffffffffffffffffffffff19166020820180517bffffffffffffffffffffffffffffffffffffffffffffffffffffffff8381831617835250505050610ade565b505050565b6109a183838360405160240161091f93929190610f2d565b6040516020818303038152906040527fe0e9ad4f000000000000000000000000000000000000000000000000000000007bffffffffffffffffffffffffffffffffffffffffffffffffffffffff19166020820180517bffffffffffffffffffffffffffffffffffffffffffffffffffffffff8381831617835250505050610ade565b505050565b610a3e82826040516024016109bc929190610fb0565b6040516020818303038152906040527f9710a9d0000000000000000000000000000000000000000000000000000000007bffffffffffffffffffffffffffffffffffffffffffffffffffffffff19166020820180517bffffffffffffffffffffffffffffffffffffffffffffffffffffffff8381831617835250505050610ade565b5050565b610ada8282604051602401610a58929190610efd565b6040516020818303038152906040527f319af333000000000000000000000000000000000000000000000000000000007bffffffffffffffffffffffffffffffffffffffffffffffffffffffff19166020820180517bffffffffffffffffffffffffffffffffffffffffffffffffffffffff8381831617835250505050610ade565b5050565b60008151905060006a636f6e736f6c652e6c6f679050602083016000808483855afa5050505050565b828054610b1390611226565b90600052602060002090601f016020900481019282610b355760008555610b7c565b82601f10610b4e57805160ff1916838001178555610b7c565b82800160010185558215610b7c579182015b82811115610b7b578251825591602001919060010190610b60565b5b509050610b899190610b8d565b5090565b5b80821115610ba6576000816000905550600101610b8e565b5090565b6000610bbd610bb8846110b0565b61108b565b905082815260208101848484011115610bd557600080fd5b610be08482856111e4565b509392505050565b600081359050610bf781611451565b92915050565b600082601f830112610c0e57600080fd5b8135610c1e848260208601610baa565b91505092915050565b600060208284031215610c3957600080fd5b6000610c4784828501610be8565b91505092915050565b600060208284031215610c6257600080fd5b600082013567ffffffffffffffff811115610c7c57600080fd5b610c8884828501610bfd565b91505092915050565b6000610c9d8383610e36565b905092915050565b610cae816111a8565b82525050565b610cbd816111a8565b82525050565b6000610cce826110f1565b610cd88185611114565b935083602082028501610cea856110e1565b8060005b85811015610d265784840389528151610d078582610c91565b9450610d1283611107565b925060208a01995050600181019050610cee565b50829750879550505050505092915050565b6000610d43826110fc565b610d4d8185611130565b9350610d5d8185602086016111f3565b610d6681611376565b840191505092915050565b6000610d7c826110fc565b610d868185611141565b9350610d968185602086016111f3565b610d9f81611376565b840191505092915050565b6000610db7603483611141565b9150610dc282611387565b604082019050919050565b6000610dda602783611141565b9150610de5826113d6565b604082019050919050565b6000610dfd600083611125565b9150610e0882611425565b600082019050919050565b6000610e20600883611141565b9150610e2b82611428565b602082019050919050565b6000606083016000830151610e4e6000860182610ca5565b5060208301518482036020860152610e668282610d38565b9150506040830151610e7b6040860182610e86565b508091505092915050565b610e8f816111da565b82525050565b610e9e816111da565b82525050565b6000610eaf82610df0565b9150819050919050565b60006020820190508181036000830152610ed38184610cc3565b905092915050565b60006020820190508181036000830152610ef58184610d71565b905092915050565b60006040820190508181036000830152610f178185610d71565b9050610f266020830184610cb4565b9392505050565b60006060820190508181036000830152610f478186610d71565b9050610f566020830185610cb4565b8181036040830152610f688184610d71565b9050949350505050565b60006060820190508181036000830152610f8c8186610d71565b9050610f9b6020830185610cb4565b610fa86040830184610e95565b949350505050565b60006040820190508181036000830152610fca8185610d71565b9050610fd96020830184610e95565b9392505050565b60006020820190508181036000830152610ff981610daa565b9050919050565b6000602082019050818103600083015261101981610dcd565b9050919050565b6000602082019050818103600083015261103981610e13565b9050919050565b60006020820190506110556000830184610e95565b92915050565b60006040820190506110706000830185610e95565b81810360208301526110828184610d71565b90509392505050565b60006110956110a6565b90506110a18282611258565b919050565b6000604051905090565b600067ffffffffffffffff8211156110cb576110ca611347565b5b6110d482611376565b9050602081019050919050565b6000819050602082019050919050565b600081519050919050565b600081519050919050565b6000602082019050919050565b600082825260208201905092915050565b600081905092915050565b600082825260208201905092915050565b600082825260208201905092915050565b600061115d826111da565b9150611168836111da565b9250827fffffffffffffffffffffffffffffffffffffffffffffffffffffffffffffffff0382111561119d5761119c6112ba565b5b828201905092915050565b60006111b3826111ba565b9050919050565b600073ffffffffffffffffffffffffffffffffffffffff82169050919050565b6000819050919050565b82818337600083830152505050565b60005b838110156112115780820151818401526020810190506111f6565b83811115611220576000848401525b50505050565b6000600282049050600182168061123e57607f821691505b6020821081141561125257611251611318565b5b50919050565b61126182611376565b810181811067ffffffffffffffff821117156112805761127f611347565b5b80604052505050565b6000611294826111da565b915061129f836111da565b9250826112af576112ae6112e9565b5b828206905092915050565b7f4e487b7100000000000000000000000000000000000000000000000000000000600052601160045260246000fd5b7f4e487b7100000000000000000000000000000000000000000000000000000000600052601260045260246000fd5b7f4e487b7100000000000000000000000000000000000000000000000000000000600052602260045260246000fd5b7f4e487b7100000000000000000000000000000000000000000000000000000000600052604160045260246000fd5b6000601f19601f8301169050919050565b7f547279696e6720746f207769746864726177206d6f7265206d6f6e657920746860008201527f616e2074686520636f6e7472616374206861732e000000000000000000000000602082015250565b7f4661696c656420746f207769746864726177206d6f6e65792066726f6d20636f60008201527f6e74726163742e00000000000000000000000000000000000000000000000000602082015250565b50565b7f576169742031356d000000000000000000000000000000000000000000000000600082015250565b61145a816111a8565b811461146557600080fd5b5056fea26469706673582212202cb6adacd11371ae72a1f40ff04df3568d391b13e6af2bc535929065230719c364736f6c63430008040033",
  "linkReferences": {},
  "deployedLinkReferences": {}
}